:1000000031C04BC077C049C048C047C046C045C09A
:1000100044C043C042C041C040C03FC03EC00902CE
:10002000190001010080640904000001FF000000C4
:100030000705810308006412011001000000088117
:10004000179F0C04010002030116035500530042E0
:1000500000740069006E00790053005000490004EC
:100060000309040011241FBECFE5D2E0DEBFCDBFDF
:1000700010E0A0E6B0E0E2EBF6E102C005900D92E0
:10008000A037B107D9F722E0A0E7B0E001C01D9288
:10009000AE31B207E1F74FD8F5CAB2CFA82FB92FCA
:1000A00080E090E041E050EA609530E009C02D9199
:1000B00082279795879510F084279527305EC8F39F
:1000C0006F5FA8F30895EADF8D939D930895A6E0EE
:1000D00088279927AA9569F00197E1F3B399FCCF96
:1000E000B39BFECF81E09927A6B3019611F0A871CA
:1000F000D9F70895CF93CFB7CF93C395B39BE9F7C3
:10010000B39B11C0B39B0FC0B39B0DC0B39B0BC07F
:10011000B39B09C0B39B07C0B59904C0C1E0C093AD
:100120009501AD98D5C00F92DF93C0916B01DD278B
:10013000CE58DE4F012EB39B03C0DF910F90E0CF6E
:100140002F930F931F934F932FEF4F6F06B303FB24
:1001500020F95F933F9350E03BE065C016B3012662
:10016000502953FDC89556B3012703FB25F92F737A
:1001700006B3B1F05027102713FB26F906B2223040
:10018000F0F000C016B3012703FB27F90126502920
:1001900006B22430E8F54F77206816B30000F6CF9A
:1001A00050274F7D206206B2102F000000C006B31A
:1001B00000265029102713FB26F906B2E2CF4F7B09
:1001C00006B3206400C0DACF01265029187106B2A8
:1001D00069F14E7F2160012F16B328C000265029F7
:1001E0004D7F06B22260102F29C0012650294B7F77
:1001F00006B22460012F2DC016B301265029477F77
:100200002860000006B22EC04F7E06B3206130C0C9
:10021000422706B3499300265029102706B24FEF14
:1002200013FB20F9297F16B379F2187159F10126D1
:10023000502906B2012703FB21F9237F06B371F28F
:10024000002650293150D0F006B2102713FB22F9B6
:10025000277E16B351F201265029012703FB06B26F
:1002600023F92F7C49F2000006B3102713FB24F971
:100270000026502906B22F7939F270CF10E21ABF4A
:10028000002719C03B503195C31BD04010E21ABF64
:100290000881033C31F10B3421F12091690119816E
:1002A000110F1213EDCF4A81441F093679F10D3237
:1002B00011F0013E29F7009370013F915F914F913A
:1002C0001F910F912F91DF910F90CAB7C5FD15CFE8
:1002D000C0916801C395C0936801CF91CFBFCF9102
:1002E000189520917001222341F310916E01112382
:1002F00079F534307AF130936E0120936A011091D0
:100300006B013BE0311B30936B0124C000916E0107
:100310000130F4F40AE54F7049F43091610034FD86
:100320001AC000936100C1E5D1E019C030915C01B1
:1003300034FD11C000935C01CDE5D1E010C005276C
:1003400010E000C021C0052710E0C89508BB14C00C
:100350003AE501C032ED032EC0E0D0E032E017B341
:100360001861C39A08B317BB58E120E84FEF20FF8C
:10037000052708BB279517951C3F28F70000455215
:10038000B0F720FF0527279508BB17951C3FB8F647
:1003900029913A9561F7077E10916F01110F08BB03
:1003A000C250D04011F01093690110E21ABF0860EA
:1003B00017B3177E402F477E54E05A95F1F708BBDC
:1003C00017BB48BB7ACFCF93DF9360916E01635028
:1003D00067FDA4C080916B01CCE0D0E0C81BD109BF
:1003E000CE58DE4F80916A018D3209F0E0C068304E
:1003F00009F092C083EC809351018AE580936100FB
:10040000109271008881807671F0CE0143D28F3FC7
:1004100009F47AC09F8191117DC09E81981708F0E0
:1004200079C0892F77C02A8110925A019981911140
:100430000AC010925B012AE531E082E030936D0141
:1004400020936C01E7CF953029F420936F012AE5C2
:1004500031E0F4CF963009F040C09B81913059F4DF
:1004600087E390E090936D0180936C0190E482E1CA
:1004700090937100CFCF923049F48EE190E0909349
:100480006D0180936C0190E489E1F2CF933019F50E
:10049000211109C08FE590E090936D0180936C016C
:1004A00090E484E0E5CF2130B1F0223049F489E4D2
:1004B00090E090936D0180936C0190E486E1D8CF39
:1004C000233049F485E690E090936D0180936C01B0
:1004D00090E088E0CDCF90E4CBCF983071F09930A8
:1004E00019F420937101B3CF9A3059F09B3009F081
:1004F000AECF9BE490935D01AACF21E731E081E08C
:100500009DCF2AE531E0FBCF988197FD8E8190E861
:10051000909371008093600010926E018091610051
:1005200084FF2DC0809160008F3F49F1C82F893032
:1005300008F0C8E0982F9C1B9093600090915101A7
:1005400028E8922790935101882361F0209171004F
:1005500027FF3FC06C2F82E591E0E5D0C82F89309E
:1005600008F061C06C2F82E591E0ADDD84E08C0F76
:10057000C83019F09FEF909360008093610084E190
:1005800096B3987131F48150D9F710926F0110929F
:100590006901C1E08111C0E090917000C91721F09C
:1005A0008111C6D3C0937000DF91CF9108958091DF
:1005B000710087FFB1CFCE01CFD08F3F21F48EE104
:1005C00080936100A9CF882309F4A6CF1092600020
:1005D000A3CF80916C0190916D014C2F480F26FFA5
:1005E00017C0FC0122E531E05491D9015C932F5FE3
:1005F0003F4F31964E13F8CF2FEF2C0F30E02F5F87
:100600003F4F820F931F90936D0180936C01AACF8F
:10061000E2E5F1E09C01D9012F5F3F4F5C915193DE
:100620004213F9CFE9CF8FEF809360008EE1A5CF21
:10063000AC9A8BB780628BBFECE5F1E08BE48183F1
:100640008AE5808308959C01DC011496F901E0811C
:100650002F5F3F4F48E050E090E880E0FE2FF92305
:1006600009F0C09AF09164000F2E00C000C0000095
:100670000A94D9F7C29AF09164000F2E00C000C00E
:1006800000000A94D9F7880FB1998F5FC098C2987B
:1006900096954150510911F7FB018193A217B307B9
:1006A00009F40895BF01D2CF80914D0190914E0180
:1006B0009C012F5F3F4F30934E0120934D012091BD
:1006C0004A0127FF11C0880F991F20934601292F47
:1006D000269520934701969587958093480162E47B
:1006E00071E086E491E0AFCF80FFEFCF2860EDCFDF
:1006F00008C024E02A95F1F7019730F024E02A950C
:10070000F1F700C00197A8F70895DC0100C000C010
:1007100000C000C000C000C087EE93E0E9DF000029
:100720001197A0F70895EF92FF921F93CF93DF9355
:10073000162FEC017C01E60EF11CCE15DF0539F415
:10074000812FDF91CF911F91FF90EF900895ACDF43
:10075000809145018993F1CFDF92EF92FF920F9341
:100760001F93CF93DF93282F80918B01062F10E0EA
:1007700081110BC0C22FD92F0C0F1D1F30E6D32EB5
:10078000C017D107B1F581E020C080911D02080F8C
:10079000111D30918A01432F50E081E0301711067E
:1007A00011F00CF080E00417150744F060918A0105
:1007B00030911D02631B34E130933401322FA22F9C
:1007C000B92F9A2F931B961740F0DF91CF911F916D
:1007D0000F91FF90EF90DF900895E0911D0291E05E
:1007E0009E0F90931D02F0E09D91EB56FE4F90837B
:1007F000E8CF89918093490157DF809146018D258B
:1008000080934601F12CE12C80914B0190914C0199
:10081000E816F90608F0B4CF62E471E086E491E0EE
:1008200012DF9091450180914901891308C0909190
:100830005001981721F090914F019813A1CF80910A
:10084000640090E025E0880F991F2A95E1F7E80EF3
:10085000F91EDACF9C0198B3842F8095892398B331
:10086000492B620F731F2617370709F40895F90102
:1008700091919F0158E048BB990F5A9500C008F02C
:1008800088BB00C0000088BB21F000C000C000C0D1
:10089000F2CFE9CFCF93DF93EC01898181110AC0B8
:1008A00081E28983D0936D01C0936C0188E0DF9170
:1008B000CF910895813039F496B39883D0936D0128
:1008C000C0936C01F4CF6A81823019F468BB80E078
:1008D000EECF462F477021E030E0042E02C0220FF9
:1008E000331F0A94E2F7833021F488B3209528233C
:1008F00004C0843021F488B3282B28BBE8CF85308E
:1009000051F460936400B99887B3856287BB88B35C
:10091000887D88BBDCCF863049F4B898C098B998F8
:10092000C198BA98C298BD98C598D1CF873051F474
:10093000BE01CE01029687DED0936D01C0936C019B
:1009400084E0B5CF883031F4609350018B8180937F
:100950004F01BDCFEC81FD81F0934E01E0934D013D
:10096000893029F480E280934A018FEFA0CF8B3049
:1009700011F480EAF8CFEA81FB81F0934C01E09317
:100980004B018A3011F480E4EECF8C3011F480EC0E
:10099000EACF8D3029F487B32095282327BB97CF42
:1009A0008E3019F487B3282BF9CF8F3009F56111F8
:1009B00012C08091350187B9A59A369A3699FECF33
:1009C00084B1888385B18983D0936D01C0936C0114
:1009D00014BA82E06CCF613031F4809135018160CE
:1009E00087B9A29AEACF623041F78FE887B9E5CF9D
:1009F000803161F4B89AB99A8AB5806A8ABD8AB59D
:100A000083608ABD83B7856083BF61CF813121F464
:100A100069BD8C8188BD5BCF823109F46CCF833195
:100A200009F463CF843181F486B390E0282339231D
:100A300002C0359527954A95E2F72883D0936D013A
:100A4000C0936C0181E033CF863161F5611106C03E
:100A500083B78B7F83BF83B78D7F12C0613049F42A
:100A600083B78B7F83BF83B7826083BF83B78E7F5B
:100A7000CBCF623049F483B78B7F83BF83B782606B
:100A800083BF83B78160C0CF633031F483B78460A4
:100A900083BF83B78D7FE9CF643009F018CF83B768
:100AA0008460D8CF8F3161F48B8190E0982F8827B4
:100AB000680F792F711D709363006093620007CFF8
:100AC000803219F41ABC13BE02CF813231F4609324
:100AD000150281E080933401FACE823219F483E169
:100AE0008883ACCF8332C9F4379A86B19A81892B37
:100AF00086B98B81813039F0823059F08111E7CE8F
:100B000010923501D4CE80913501806880933501F3
:100B1000DECE809135018069F9CF883249F48CE8C6
:100B200091E090936D0180936C0180919401BFCE10
:100B3000893211F482E0CECF8A3231F483E080939F
:100B4000340160931502C3CE8B3211F484E0C2CF1E
:100B50008C3211F488E0BECF8D3211F489E0EFCFF2
:100B60008E3261F48BE080933401609315028B81A7
:100B7000809316028C8180931702A9CE8F3259F48C
:100B8000613031F4B89AB99ABA9A60933C019FCE19
:100B900010923C019CCE803349F4609338018B81E4
:100BA000809337018C818093360191CE813331F46B
:100BB00070E0709341016093400189CE823311F45B
:100BC00085E088CF833321F46093150286E082CFDD
:100BD000863371F565FF1BC0E0917200E03CB8F40C
:100BE0008B81AE2FB0E0AC58BF4F8C938C81A1E0CD
:100BF000AE0FB0E0AC58BF4F8C9383E08E0F809364
:100C000072008D81EE5FF0E0EC58FF4F80838A81A7
:100C100084FF5DCE80917200882309F458CE81E173
:100C20008093340187B3822B87BB209373004FCE10
:100C30008733A1F480916D0090916E0015D580915D
:100C40006D0090916E006B8101960ED580916D00C4
:100C500090916E006C81029607D539CE8C3339F5B0
:100C600080918B01811133CE888187FF09C085E98E
:100C700091E090936D0180936C0180918A0117CE71
:100C800060938B018E8180938A0180918A0181110A
:100C900004C094E1909334010ACE80918A01813896
:100CA00018F080E880938A0110921D025ECE982F82
:100CB000907F903EE9F49AE090933401982F9770DA
:100CC0009093150288708093160220E0809115029F
:100CD000281708F0FCCD822F90E00296FE01E80F65
:100CE000F91F30818B5E9D4FFC0130832F5FEECF6B
:100CF000903F09F0ECCD97E090933401982F9870D5
:100D00009093150287708093160220E0809116025E
:100D1000281708F0DCCD822F90E00296FE01E80F44
:100D2000F91F30818B5E9D4FFC0130832F5FEECF2A
:100D3000DF92EF92FF920F931F93CF93DF9388E0A0
:100D4000E82EF12CC0E0D0E8DD2EDC0ED1BEBFD9FC
:100D50008C01043389E018070CF4CD2DD69581E081
:100D6000E81AF10889F78FEF8C0F81BFEC2EF12C78
:100D70008FEFE81AF80A81B78E151F0469F064F046
:100D8000C1BF61B790E080E0DF91CF911F910F91DB
:100D9000FF90EF90DF9068C49AD98453994097FFF1
:100DA00003C09195819591098017910714F4C1B7FB
:100DB0008C0181B78F5F81BFDECFCF93DF93C82FC8
:100DC000882341F1B898D0E0809140019091410191
:100DD000D817190608F1BA98D0E080914001909197
:100DE0004101D8171906E8F0BA9AD0E08091400185
:100DF00090914101D8171906C8F0C111B89AC0E006
:100E00008091400190914101C8171906A0F0DF912F
:100E1000CF910895B89AD7CF81E090E069DCDF5F89
:100E2000D3CF81E090E064DCDF5FD7CF81E090E05A
:100E30005FDCDF5FDBCF81E090E05ADCCF5FE0CFAB
:100E40000F931F93CF93DF93B898C0E08091400138
:100E500090914101C8171906F0F0BA98C0E00091CE
:100E6000400110914101C0171106D0F0D6B3C0E087
:100E7000C0171106D0F0BA9AC0E08091400190915D
:100E80004101C8171906B0F08D2F8170DF91CF9105
:100E90001F910F91089581E090E02ADCCF5FD6CFBB
:100EA00081E090E025DCCF5FDACF81E090E020DCCC
:100EB000CF5FDECF81E090E01BDCCF5FDECFCF9352
:100EC00088B38A7F88BBBA98B898C0E08091400107
:100ED00090914101C817190610F0CF91089581E053
:100EE00090E006DCCF5FF2CFCF9387B38A7F87BBDA
:100EF000C0E08091400190914101C8171906A0F00F
:100F0000B89AC0E08091400190914101C81719063C
:100F100080F0BA9AC0E08091400190914101C817D9
:100F2000190660F0CF91089581E090E0E1DBCF5F9A
:100F3000E0CF81E090E0DCDBCF5FE4CF81E090E0C8
:100F4000D7DBCF5FE8CFCF93B89AC0E08091400164
:100F500090914101C8171906E8F0BA9AC0E0809153
:100F6000400190914101C8171906C8F0BA98C0E035
:100F70008091400190914101C8171906A8F0B898D6
:100F8000C0E08091400190914101C817190688F096
:100F9000CF91089581E090E0ABDBCF5FD7CF81E0C8
:100FA00090E0A6DBCF5FDBCF81E090E0A1DBCF5FFD
:100FB000DFCF81E090E09CDBCF5FE3CFCF93DF9387
:100FC000C82FD8E08C2F8078F8DECC0FD150D1F725
:100FD000DF91CF9135CFEF92FF920F931F93CF9375
:100FE000DF93182FC8E0D0E0DD0F2ADFD82BC150E7
:100FF000D9F700E0E0904001F09041010E151F0488
:1010000080F080E0111101C081E0D7DECE151F0411
:1010100068F08D2FDF91CF911F910F91FF90EF908E
:10102000089581E090E064DB0F5FE4CF81E090E021
:101030005FDBCF5FEBCFA5E9B1E08827F894C59AD5
:10104000BD98EE27FF27319688F0B599FCCF803404
:1010500068F4ED93FD938395EE27FF27319630F0EA
:10106000B59BFCCFED93FD938395EBCF7894880FE0
:1010700080938A010895C59ABD9A809188019091C4
:101080008901A5E9B1E070918A017723C1F0F89454
:10109000FC01C5986D9158E03197F1F760FDC59A54
:1010A00060FFC598FC013197F1F766955A95B1F745
:1010B000FC01C59A31963197F1F77A9549F7BD98B9
:1010C000089577278091880190918901A5E9B1E081
:1010D000EE27FF27772359F0E3E00E2EFC01EE0FF9
:1010E000FF1F18F4EE27FF2702C00A94C1F73197BB
:1010F000F1F0B599FCCFFC01F695E7953197F1F742
:10110000B599E6CF662758E0FC013197F1F766956F
:10111000B599606800C05A95B9F76D937395EE273D
:10112000FF27319721F0B59BFCCF703888F2789477
:1011300070938A01089580E287BB88BB90E080E0CD
:101140008BD28F3F09F081BFC0916D00D0916E00AE
:10115000CE0182D280538A3060F4CE0101967CD2D7
:1011600080538A3030F4CE01029676D280538A3092
:1011700088F065E3CE0178D280916D0090916E0089
:1011800061E3019671D280916D0090916E0062E3EF
:1011900002966AD2C0916D00D0916E00CE015CD2F1
:1011A00090E09093680080936700CE01019654D23E
:1011B00090E090936A0080936900CE0102964CD231
:1011C00090E090936C0080936B00BB9AC4E18FE039
:1011D00090E09BDAC150D9F7BB9885E090E09093FE
:1011E000410180934001109263001092620088E1F7
:1011F0009EE00FB6F894A89581BD0FBE91BD1092E8
:101200003B0110923A01109239011092380110926C
:1012100037011092360110923D011092340108DA24
:101220007894B898C098B998C198BA98C298BD985F
:10123000C59811E00AE180E4F82EC1E09BE1E92EB7
:1012400020E8D22EA895BFD8E0913401E53108F00E
:1012500040C0F0E0EC5BF44F0994B89AB998BA9AA0
:10126000C29A10928C018091150280933F01D09216
:101270003E01C098D0E08091620090916300D81741
:10128000190650F180913F0190913E01892309F0A8
:10129000C09AC29880918C01880F80938C0196B37C
:1012A00080918C0196959170890F80938C01D0E08C
:1012B0008091620090916300D817190690F0C29A4D
:1012C00080913E01869580933E018111D2CFC093DB
:1012D00094011092340180C181E090E009DADF5F6F
:1012E000CACF81E090E004DADF5FE2CFBA9AC29819
:1012F00080EE91E0FDD9DFB7F894C29A86E490E0E1
:10130000F7D9BA9886B382FB882780F98127809322
:101310008C01DFBF8AE991E0EBD9BA9AC29AD7CFA4
:101320008091150280933E01BA9AD8E0BFB6F89436
:10133000C29880913E0180FF10C086E090E0D8D92D
:10134000C29A80E490E0D4D980913E018695809342
:101350003E01BFBED15051F7BCCF8CE390E0C8D95D
:10136000C29A8AE090E0EFCF10928C01D8E0809191
:101370008C01869580938C01BA9ABFB6F894C29876
:1013800086E090E0B5D9C29A8AE090E0B1D9BA98E7
:1013900086B382FB882780F980933E01BFBE87E336
:1013A00090E0A6D980913E01882329F080918C019C
:1013B000806880938C01D150D1F689CFBA9ADFB77B
:1013C000F894C29886E090E093D9C29A8AE090E0BF
:1013D0008FD9BA9886B382FB882780F980938C01D5
:1013E000DFBF75CFBA9ADFB7F894C2988091150223
:1013F00080FF09C086E090E07BD9C29A80E490E04B
:1014000077D9DFBF66CF8CE390E072D9C29A8AE0C9
:1014100090E0F6CFB99AB898BA9AC298E0923F0194
:101420000DB9809115028111C59810923E018091ED
:101430001602E0913E01E81748F0809115028111F3
:10144000C59A80913E018093940143CFF0E0E95E1C
:10145000FD4F80818FB9FEB880913F018DB9D0E0FA
:101460008091620090916300D817190670F0769B06
:10147000F3CF80913E01E82FF0E09FB1E457FE4F9B
:1014800090838F5F80933E01D2CF81E090E030D98E
:10149000DF5FE6CF14DD1DCF90E080E025DD809199
:1014A00015028CDD80933E0180938C0110CFED2FCF
:1014B000F0E0E95EFD4F808181DD80933E01DF5FDA
:1014C00080911502D81798F38091160281113BDDA7
:1014D00080913E01E9CFD0E0F3CFD0911502D11138
:1014E0002BC080911602D81700F5AD2EB12C81E0EB
:1014F00072DDF501E457FE4F8083DF5FF2CF81E0BC
:101500006ADDF5018083DF5F8D2F90E02091160268
:101510002150330BAC0144575E4F5A018217930799
:1015200074F380E058DDF50180838091170281110A
:101530000ADD8091160287CFD0E0E6CF81E090E00F
:10154000E4D8DFB7F8946091720070E040917300C6
:1015500084E790E07FD91092720053CF80918B0185
:10156000847309F054C080918B0180FF05C0C59839
:10157000BD9A84E690E0C9D880918B0181FF08C0B4
:1015800080919501809388018091960180938901D3
:1015900080918B0182FD6FDD80918B0183FF07C0FD
:1015A00010929501C0938A01BD98AD9A789480916C
:1015B0008B0184FD86DD80918B0185FD3CDD809172
:1015C0008B0186FF04C082E390E09FD834DD109247
:1015D000340110928B01789480913C01882309F4A6
:1015E00031CE80913D0181111DC0809138018093E1
:1015F0003B018091370180933A01809136018093BD
:10160000390180913D018F5F80933D011BCED091C8
:10161000680188EC90E06CD88D2FD09168018D1313
:10162000F8CFA1CF90913B01981780F4C09890918A
:101630003D0180913A01891758F4C19890913D017C
:1016400080913901891730F4C298DBCFC09AEFCF6F
:10165000C19AF4CFC29AD5CFE199FECF9FBB8EBB82
:10166000E09A99278DB30895262FE199FECF1CBAF1
:101670009FBB8EBB2DBB0FB6F894E29AE19A0FBECA
:1016800001960895F894FFCFA7CFE7CD2FCE48CE8F
:101690006BCE94CEA7CEBECEFDCEFECE1CCF1DCF40
:1016A00018CE17CE16CE15CE14CE48CF12CE11CEF0
:0216B00055CF14
:1016B200FF5A0A000A0803350031003200200000F8
:00000001FF
